{"contracts/p2p_txs.sol":{"P2PTransactions":{"abi":[{"inputs":[],"stateMutability":"nonpayable","type":"constructor"},{"anonymous":false,"inputs":[{"indexed":false,"internalType":"uint256","name":"amount","type":"uint256"}],"name":"CheckBalance","type":"event"},{"inputs":[{"internalType":"address","name":"","type":"address"}],"name":"balances","outputs":[{"internalType":"uint256","name":"","type":"uint256"}],"stateMutability":"view","type":"function"},{"inputs":[],"name":"deposit","outputs":[],"stateMutability":"payable","type":"function"},{"inputs":[{"internalType":"address","name":"account","type":"address"}],"name":"getBalance","outputs":[{"internalType":"uint256","name":"","type":"uint256"}],"stateMutability":"view","type":"function"},{"inputs":[{"internalType":"address","name":"user_account","type":"address"}],"name":"getUserBalance","outputs":[{"internalType":"uint256","name":"","type":"uint256"}],"stateMutability":"nonpayable","type":"function"},{"inputs":[{"internalType":"address","name":"to","type":"address"},{"internalType":"uint256","name":"amount","type":"uint256"}],"name":"transfer","outputs":[],"stateMutability":"nonpayable","type":"function"}],"evm":{"bytecode":{"linkReferences":{},"object":"608060405234801561001057600080fd5b506107cb806100206000396000f3fe60806040526004361061004a5760003560e01c806327e235e31461004f578063477348921461008c578063a9059cbb146100c9578063d0e30db0146100f2578063f8b2cb4f146100fc575b600080fd5b34801561005b57600080fd5b5061007660048036038101906100719190610490565b610139565b60405161008391906104d6565b60405180910390f35b34801561009857600080fd5b506100b360048036038101906100ae9190610490565b610151565b6040516100c091906104d6565b60405180910390f35b3480156100d557600080fd5b506100f060048036038101906100eb919061051d565b6101ae565b005b6100fa61034b565b005b34801561010857600080fd5b50610123600480360381019061011e9190610490565b6103e5565b60405161013091906104d6565b60405180910390f35b60006020528060005260406000206000915090505481565b6000808273ffffffffffffffffffffffffffffffffffffffff163190507f7c4b3ebe24b67f845d481885128ad41f55e5d927e00e2573453e1a8cf437b75c8160405161019d91906104d6565b60405180910390a180915050919050565b806000803373ffffffffffffffffffffffffffffffffffffffff1673ffffffffffffffffffffffffffffffffffffffff16815260200190815260200160002054101561022f576040517f08c379a0000000000000000000000000000000000000000000000000000000008152600401610226906105ba565b60405180910390fd5b8173ffffffffffffffffffffffffffffffffffffffff163373ffffffffffffffffffffffffffffffffffffffff160361029d576040517f08c379a00000000000000000000000000000000000000000000000000000000081526004016102949061064c565b60405180910390fd5b806000803373ffffffffffffffffffffffffffffffffffffffff1673ffffffffffffffffffffffffffffffffffffffff16815260200190815260200160002060008282546102eb919061069b565b92505081905550806000808473ffffffffffffffffffffffffffffffffffffffff1673ffffffffffffffffffffffffffffffffffffffff168152602001908152602001600020600082825461034091906106cf565b925050819055505050565b6000341161038e576040517f08c379a000000000000000000000000000000000000000000000000000000000815260040161038590610775565b60405180910390fd5b346000803373ffffffffffffffffffffffffffffffffffffffff1673ffffffffffffffffffffffffffffffffffffffff16815260200190815260200160002060008282546103dc91906106cf565b92505081905550565b60008060008373ffffffffffffffffffffffffffffffffffffffff1673ffffffffffffffffffffffffffffffffffffffff168152602001908152602001600020549050919050565b600080fd5b600073ffffffffffffffffffffffffffffffffffffffff82169050919050565b600061045d82610432565b9050919050565b61046d81610452565b811461047857600080fd5b50565b60008135905061048a81610464565b92915050565b6000602082840312156104a6576104a561042d565b5b60006104b48482850161047b565b91505092915050565b6000819050919050565b6104d0816104bd565b82525050565b60006020820190506104eb60008301846104c7565b92915050565b6104fa816104bd565b811461050557600080fd5b50565b600081359050610517816104f1565b92915050565b600080604083850312156105345761053361042d565b5b60006105428582860161047b565b925050602061055385828601610508565b9150509250929050565b600082825260208201905092915050565b7f496e73756666696369656e742062616c616e63652e0000000000000000000000600082015250565b60006105a460158361055d565b91506105af8261056e565b602082019050919050565b600060208201905081810360008301526105d381610597565b9050919050565b7f596f752063616e6e6f74207472616e736665722066756e647320746f20796f7560008201527f7273656c662e0000000000000000000000000000000000000000000000000000602082015250565b600061063660268361055d565b9150610641826105da565b604082019050919050565b6000602082019050818103600083015261066581610629565b9050919050565b7f4e487b7100000000000000000000000000000000000000000000000000000000600052601160045260246000fd5b60006106a6826104bd565b91506106b1836104bd565b92508282039050818111156106c9576106c861066c565b5b92915050565b60006106da826104bd565b91506106e5836104bd565b92508282019050808211156106fd576106fc61066c565b5b92915050565b7f596f75206d757374206465706f73697420736f6d652063727970746f6375727260008201527f656e63792e000000000000000000000000000000000000000000000000000000602082015250565b600061075f60258361055d565b915061076a82610703565b604082019050919050565b6000602082019050818103600083015261078e81610752565b905091905056fea264697066735822122091f55a0fc36dce65333079995279fd43ae0faf133ee7e6e58790dc0f688b4f6f64736f6c63430008130033","opcodes":"PUSH1 0x80 PUSH1 0x40 MSTORE CALLVALUE DUP1 ISZERO PUSH2 0x10 JUMPI PUSH1 0x0 DUP1 REVERT JUMPDEST POP PUSH2 0x7CB DUP1 PUSH2 0x20 PUSH1 0x0 CODECOPY PUSH1 0x0 RETURN INVALID PUSH1 0x80 PUSH1 0x40 MSTORE PUSH1 0x4 CALLDATASIZE LT PUSH2 0x4A JUMPI PUSH1 0x0 CALLDATALOAD PUSH1 0xE0 SHR DUP1 PUSH4 0x27E235E3 EQ PUSH2 0x4F JUMPI DUP1 PUSH4 0x47734892 EQ PUSH2 0x8C JUMPI DUP1 PUSH4 0xA9059CBB EQ PUSH2 0xC9 JUMPI DUP1 PUSH4 0xD0E30DB0 EQ PUSH2 0xF2 JUMPI DUP1 PUSH4 0xF8B2CB4F EQ PUSH2 0xFC JUMPI JUMPDEST PUSH1 0x0 DUP1 REVERT JUMPDEST CALLVALUE DUP1 ISZERO PUSH2 0x5B JUMPI PUSH1 0x0 DUP1 REVERT JUMPDEST POP PUSH2 0x76 PUSH1 0x4 DUP1 CALLDATASIZE SUB DUP2 ADD SWAP1 PUSH2 0x71 SWAP2 SWAP1 PUSH2 0x490 JUMP JUMPDEST PUSH2 0x139 JUMP JUMPDEST PUSH1 0x40 MLOAD PUSH2 0x83 SWAP2 SWAP1 PUSH2 0x4D6 JUMP JUMPDEST PUSH1 0x40 MLOAD DUP1 SWAP2 SUB SWAP1 RETURN JUMPDEST CALLVALUE DUP1 ISZERO PUSH2 0x98 JUMPI PUSH1 0x0 DUP1 REVERT JUMPDEST POP PUSH2 0xB3 PUSH1 0x4 DUP1 CALLDATASIZE SUB DUP2 ADD SWAP1 PUSH2 0xAE SWAP2 SWAP1 PUSH2 0x490 JUMP JUMPDEST PUSH2 0x151 JUMP JUMPDEST PUSH1 0x40 MLOAD PUSH2 0xC0 SWAP2 SWAP1 PUSH2 0x4D6 JUMP JUMPDEST PUSH1 0x40 MLOAD DUP1 SWAP2 SUB SWAP1 RETURN JUMPDEST CALLVALUE DUP1 ISZERO PUSH2 0xD5 JUMPI PUSH1 0x0 DUP1 REVERT JUMPDEST POP PUSH2 0xF0 PUSH1 0x4 DUP1 CALLDATASIZE SUB DUP2 ADD SWAP1 PUSH2 0xEB SWAP2 SWAP1 PUSH2 0x51D JUMP JUMPDEST PUSH2 0x1AE JUMP JUMPDEST STOP JUMPDEST PUSH2 0xFA PUSH2 0x34B JUMP JUMPDEST STOP JUMPDEST CALLVALUE DUP1 ISZERO PUSH2 0x108 JUMPI PUSH1 0x0 DUP1 REVERT JUMPDEST POP PUSH2 0x123 PUSH1 0x4 DUP1 CALLDATASIZE SUB DUP2 ADD SWAP1 PUSH2 0x11E SWAP2 SWAP1 PUSH2 0x490 JUMP JUMPDEST PUSH2 0x3E5 JUMP JUMPDEST PUSH1 0x40 MLOAD PUSH2 0x130 SWAP2 SWAP1 PUSH2 0x4D6 JUMP JUMPDEST PUSH1 0x40 MLOAD DUP1 SWAP2 SUB SWAP1 RETURN JUMPDEST PUSH1 0x0 PUSH1 0x20 MSTORE DUP1 PUSH1 0x0 MSTORE PUSH1 0x40 PUSH1 0x0 KECCAK256 PUSH1 0x0 SWAP2 POP SWAP1 POP SLOAD DUP2 JUMP JUMPDEST PUSH1 0x0 DUP1 DUP3 PUSH20 0xFFFFFFFFFFFFFFFFFFFFFFFFFFFFFFFFFFFFFFFF AND BALANCE SWAP1 POP PUSH32 0x7C4B3EBE24B67F845D481885128AD41F55E5D927E00E2573453E1A8CF437B75C DUP2 PUSH1 0x40 MLOAD PUSH2 0x19D SWAP2 SWAP1 PUSH2 0x4D6 JUMP JUMPDEST PUSH1 0x40 MLOAD DUP1 SWAP2 SUB SWAP1 LOG1 DUP1 SWAP2 POP POP SWAP2 SWAP1 POP JUMP JUMPDEST DUP1 PUSH1 0x0 DUP1 CALLER PUSH20 0xFFFFFFFFFFFFFFFFFFFFFFFFFFFFFFFFFFFFFFFF AND PUSH20 0xFFFFFFFFFFFFFFFFFFFFFFFFFFFFFFFFFFFFFFFF AND DUP2 MSTORE PUSH1 0x20 ADD SWAP1 DUP2 MSTORE PUSH1 0x20 ADD PUSH1 0x0 KECCAK256 SLOAD LT ISZERO PUSH2 0x22F JUMPI PUSH1 0x40 MLOAD PUSH32 0x8C379A000000000000000000000000000000000000000000000000000000000 DUP2 MSTORE PUSH1 0x4 ADD PUSH2 0x226 SWAP1 PUSH2 0x5BA JUMP JUMPDEST PUSH1 0x40 MLOAD DUP1 SWAP2 SUB SWAP1 REVERT JUMPDEST DUP2 PUSH20 0xFFFFFFFFFFFFFFFFFFFFFFFFFFFFFFFFFFFFFFFF AND CALLER PUSH20 0xFFFFFFFFFFFFFFFFFFFFFFFFFFFFFFFFFFFFFFFF AND SUB PUSH2 0x29D JUMPI PUSH1 0x40 MLOAD PUSH32 0x8C379A000000000000000000000000000000000000000000000000000000000 DUP2 MSTORE PUSH1 0x4 ADD PUSH2 0x294 SWAP1 PUSH2 0x64C JUMP JUMPDEST PUSH1 0x40 MLOAD DUP1 SWAP2 SUB SWAP1 REVERT JUMPDEST DUP1 PUSH1 0x0 DUP1 CALLER PUSH20 0xFFFFFFFFFFFFFFFFFFFFFFFFFFFFFFFFFFFFFFFF AND PUSH20 0xFFFFFFFFFFFFFFFFFFFFFFFFFFFFFFFFFFFFFFFF AND DUP2 MSTORE PUSH1 0x20 ADD SWAP1 DUP2 MSTORE PUSH1 0x20 ADD PUSH1 0x0 KECCAK256 PUSH1 0x0 DUP3 DUP3 SLOAD PUSH2 0x2EB SWAP2 SWAP1 PUSH2 0x69B JUMP JUMPDEST SWAP3 POP POP DUP2 SWAP1 SSTORE POP DUP1 PUSH1 0x0 DUP1 DUP5 PUSH20 0xFFFFFFFFFFFFFFFFFFFFFFFFFFFFFFFFFFFFFFFF AND PUSH20 0xFFFFFFFFFFFFFFFFFFFFFFFFFFFFFFFFFFFFFFFF AND DUP2 MSTORE PUSH1 0x20 ADD SWAP1 DUP2 MSTORE PUSH1 0x20 ADD PUSH1 0x0 KECCAK256 PUSH1 0x0 DUP3 DUP3 SLOAD PUSH2 0x340 SWAP2 SWAP1 PUSH2 0x6CF JUMP JUMPDEST SWAP3 POP POP DUP2 SWAP1 SSTORE POP POP POP JUMP JUMPDEST PUSH1 0x0 CALLVALUE GT PUSH2 0x38E JUMPI PUSH1 0x40 MLOAD PUSH32 0x8C379A000000000000000000000000000000000000000000000000000000000 DUP2 MSTORE PUSH1 0x4 ADD PUSH2 0x385 SWAP1 PUSH2 0x775 JUMP JUMPDEST PUSH1 0x40 MLOAD DUP1 SWAP2 SUB SWAP1 REVERT JUMPDEST CALLVALUE PUSH1 0x0 DUP1 CALLER PUSH20 0xFFFFFFFFFFFFFFFFFFFFFFFFFFFFFFFFFFFFFFFF AND PUSH20 0xFFFFFFFFFFFFFFFFFFFFFFFFFFFFFFFFFFFFFFFF AND DUP2 MSTORE PUSH1 0x20 ADD SWAP1 DUP2 MSTORE PUSH1 0x20 ADD PUSH1 0x0 KECCAK256 PUSH1 0x0 DUP3 DUP3 SLOAD PUSH2 0x3DC SWAP2 SWAP1 PUSH2 0x6CF JUMP JUMPDEST SWAP3 POP POP DUP2 SWAP1 SSTORE POP JUMP JUMPDEST PUSH1 0x0 DUP1 PUSH1 0x0 DUP4 PUSH20 0xFFFFFFFFFFFFFFFFFFFFFFFFFFFFFFFFFFFFFFFF AND PUSH20 0xFFFFFFFFFFFFFFFFFFFFFFFFFFFFFFFFFFFFFFFF AND DUP2 MSTORE PUSH1 0x20 ADD SWAP1 DUP2 MSTORE PUSH1 0x20 ADD PUSH1 0x0 KECCAK256 SLOAD SWAP1 POP SWAP2 SWAP1 POP JUMP JUMPDEST PUSH1 0x0 DUP1 REVERT JUMPDEST PUSH1 0x0 PUSH20 0xFFFFFFFFFFFFFFFFFFFFFFFFFFFFFFFFFFFFFFFF DUP3 AND SWAP1 POP SWAP2 SWAP1 POP JUMP JUMPDEST PUSH1 0x0 PUSH2 0x45D DUP3 PUSH2 0x432 JUMP JUMPDEST SWAP1 POP SWAP2 SWAP1 POP JUMP JUMPDEST PUSH2 0x46D DUP2 PUSH2 0x452 JUMP JUMPDEST DUP2 EQ PUSH2 0x478 JUMPI PUSH1 0x0 DUP1 REVERT JUMPDEST POP JUMP JUMPDEST PUSH1 0x0 DUP2 CALLDATALOAD SWAP1 POP PUSH2 0x48A DUP2 PUSH2 0x464 JUMP JUMPDEST SWAP3 SWAP2 POP POP JUMP JUMPDEST PUSH1 0x0 PUSH1 0x20 DUP3 DUP5 SUB SLT ISZERO PUSH2 0x4A6 JUMPI PUSH2 0x4A5 PUSH2 0x42D JUMP JUMPDEST JUMPDEST PUSH1 0x0 PUSH2 0x4B4 DUP5 DUP3 DUP6 ADD PUSH2 0x47B JUMP JUMPDEST SWAP2 POP POP SWAP3 SWAP2 POP POP JUMP JUMPDEST PUSH1 0x0 DUP2 SWAP1 POP SWAP2 SWAP1 POP JUMP JUMPDEST PUSH2 0x4D0 DUP2 PUSH2 0x4BD JUMP JUMPDEST DUP3 MSTORE POP POP JUMP JUMPDEST PUSH1 0x0 PUSH1 0x20 DUP3 ADD SWAP1 POP PUSH2 0x4EB PUSH1 0x0 DUP4 ADD DUP5 PUSH2 0x4C7 JUMP JUMPDEST SWAP3 SWAP2 POP POP JUMP JUMPDEST PUSH2 0x4FA DUP2 PUSH2 0x4BD JUMP JUMPDEST DUP2 EQ PUSH2 0x505 JUMPI PUSH1 0x0 DUP1 REVERT JUMPDEST POP JUMP JUMPDEST PUSH1 0x0 DUP2 CALLDATALOAD SWAP1 POP PUSH2 0x517 DUP2 PUSH2 0x4F1 JUMP JUMPDEST SWAP3 SWAP2 POP POP JUMP JUMPDEST PUSH1 0x0 DUP1 PUSH1 0x40 DUP4 DUP6 SUB SLT ISZERO PUSH2 0x534 JUMPI PUSH2 0x533 PUSH2 0x42D JUMP JUMPDEST JUMPDEST PUSH1 0x0 PUSH2 0x542 DUP6 DUP3 DUP7 ADD PUSH2 0x47B JUMP JUMPDEST SWAP3 POP POP PUSH1 0x20 PUSH2 0x553 DUP6 DUP3 DUP7 ADD PUSH2 0x508 JUMP JUMPDEST SWAP2 POP POP SWAP3 POP SWAP3 SWAP1 POP JUMP JUMPDEST PUSH1 0x0 DUP3 DUP3 MSTORE PUSH1 0x20 DUP3 ADD SWAP1 POP SWAP3 SWAP2 POP POP JUMP JUMPDEST PUSH32 0x496E73756666696369656E742062616C616E63652E0000000000000000000000 PUSH1 0x0 DUP3 ADD MSTORE POP JUMP JUMPDEST PUSH1 0x0 PUSH2 0x5A4 PUSH1 0x15 DUP4 PUSH2 0x55D JUMP JUMPDEST SWAP2 POP PUSH2 0x5AF DUP3 PUSH2 0x56E JUMP JUMPDEST PUSH1 0x20 DUP3 ADD SWAP1 POP SWAP2 SWAP1 POP JUMP JUMPDEST PUSH1 0x0 PUSH1 0x20 DUP3 ADD SWAP1 POP DUP2 DUP2 SUB PUSH1 0x0 DUP4 ADD MSTORE PUSH2 0x5D3 DUP2 PUSH2 0x597 JUMP JUMPDEST SWAP1 POP SWAP2 SWAP1 POP JUMP JUMPDEST PUSH32 0x596F752063616E6E6F74207472616E736665722066756E647320746F20796F75 PUSH1 0x0 DUP3 ADD MSTORE PUSH32 0x7273656C662E0000000000000000000000000000000000000000000000000000 PUSH1 0x20 DUP3 ADD MSTORE POP JUMP JUMPDEST PUSH1 0x0 PUSH2 0x636 PUSH1 0x26 DUP4 PUSH2 0x55D JUMP JUMPDEST SWAP2 POP PUSH2 0x641 DUP3 PUSH2 0x5DA JUMP JUMPDEST PUSH1 0x40 DUP3 ADD SWAP1 POP SWAP2 SWAP1 POP JUMP JUMPDEST PUSH1 0x0 PUSH1 0x20 DUP3 ADD SWAP1 POP DUP2 DUP2 SUB PUSH1 0x0 DUP4 ADD MSTORE PUSH2 0x665 DUP2 PUSH2 0x629 JUMP JUMPDEST SWAP1 POP SWAP2 SWAP1 POP JUMP JUMPDEST PUSH32 0x4E487B7100000000000000000000000000000000000000000000000000000000 PUSH1 0x0 MSTORE PUSH1 0x11 PUSH1 0x4 MSTORE PUSH1 0x24 PUSH1 0x0 REVERT JUMPDEST PUSH1 0x0 PUSH2 0x6A6 DUP3 PUSH2 0x4BD JUMP JUMPDEST SWAP2 POP PUSH2 0x6B1 DUP4 PUSH2 0x4BD JUMP JUMPDEST SWAP3 POP DUP3 DUP3 SUB SWAP1 POP DUP2 DUP2 GT ISZERO PUSH2 0x6C9 JUMPI PUSH2 0x6C8 PUSH2 0x66C JUMP JUMPDEST JUMPDEST SWAP3 SWAP2 POP POP JUMP JUMPDEST PUSH1 0x0 PUSH2 0x6DA DUP3 PUSH2 0x4BD JUMP JUMPDEST SWAP2 POP PUSH2 0x6E5 DUP4 PUSH2 0x4BD JUMP JUMPDEST SWAP3 POP DUP3 DUP3 ADD SWAP1 POP DUP1 DUP3 GT ISZERO PUSH2 0x6FD JUMPI PUSH2 0x6FC PUSH2 0x66C JUMP JUMPDEST JUMPDEST SWAP3 SWAP2 POP POP JUMP JUMPDEST PUSH32 0x596F75206D757374206465706F73697420736F6D652063727970746F63757272 PUSH1 0x0 DUP3 ADD MSTORE PUSH32 0x656E63792E000000000000000000000000000000000000000000000000000000 PUSH1 0x20 DUP3 ADD MSTORE POP JUMP JUMPDEST PUSH1 0x0 PUSH2 0x75F PUSH1 0x25 DUP4 PUSH2 0x55D JUMP JUMPDEST SWAP2 POP PUSH2 0x76A DUP3 PUSH2 0x703 JUMP JUMPDEST PUSH1 0x40 DUP3 ADD SWAP1 POP SWAP2 SWAP1 POP JUMP JUMPDEST PUSH1 0x0 PUSH1 0x20 DUP3 ADD SWAP1 POP DUP2 DUP2 SUB PUSH1 0x0 DUP4 ADD MSTORE PUSH2 0x78E DUP2 PUSH2 0x752 JUMP JUMPDEST SWAP1 POP SWAP2 SWAP1 POP JUMP INVALID LOG2 PUSH5 0x6970667358 0x22 SLT KECCAK256 SWAP2 CREATE2 GAS 0xF 0xC3 PUSH14 0xCE65333079995279FD43AE0FAF13 RETURNDATACOPY 0xE7 0xE6 0xE5 DUP8 SWAP1 0xDC 0xF PUSH9 0x8B4F6F64736F6C6343 STOP ADDMOD SGT STOP CALLER "},"methodIdentifiers":{"balances(address)":"27e235e3","deposit()":"d0e30db0","getBalance(address)":"f8b2cb4f","getUserBalance(address)":"47734892","transfer(address,uint256)":"a9059cbb"}}}}}