{
  "_format": "hh-sol-artifact-1",
  "contractName": "P2PTransactions",
  "sourceName": "contracts/p2p_txs.sol",
  "abi": [
    {
      "inputs": [],
      "stateMutability": "nonpayable",
      "type": "constructor"
    },
    {
      "anonymous": false,
      "inputs": [
        {
          "indexed": false,
          "internalType": "uint256",
          "name": "amount",
          "type": "uint256"
        }
      ],
      "name": "CheckBalance",
      "type": "event"
    },
    {
      "inputs": [
        {
          "internalType": "address",
          "name": "",
          "type": "address"
        }
      ],
      "name": "balances",
      "outputs": [
        {
          "internalType": "uint256",
          "name": "",
          "type": "uint256"
        }
      ],
      "stateMutability": "view",
      "type": "function"
    },
    {
      "inputs": [],
      "name": "deposit",
      "outputs": [],
      "stateMutability": "payable",
      "type": "function"
    },
    {
      "inputs": [
        {
          "internalType": "address",
          "name": "account",
          "type": "address"
        }
      ],
      "name": "getBalance",
      "outputs": [
        {
          "internalType": "uint256",
          "name": "",
          "type": "uint256"
        }
      ],
      "stateMutability": "view",
      "type": "function"
    },
    {
      "inputs": [
        {
          "internalType": "address",
          "name": "user_account",
          "type": "address"
        }
      ],
      "name": "getUserBalance",
      "outputs": [
        {
          "internalType": "uint256",
          "name": "",
          "type": "uint256"
        }
      ],
      "stateMutability": "nonpayable",
      "type": "function"
    },
    {
      "inputs": [
        {
          "internalType": "address",
          "name": "to",
          "type": "address"
        },
        {
          "internalType": "uint256",
          "name": "amount",
          "type": "uint256"
        }
      ],
      "name": "transfer",
      "outputs": [],
      "stateMutability": "nonpayable",
      "type": "function"
    }
  ],
  "bytecode": "0x608060405234801561001057600080fd5b506107cb806100206000396000f3fe60806040526004361061004a5760003560e01c806327e235e31461004f578063477348921461008c578063a9059cbb146100c9578063d0e30db0146100f2578063f8b2cb4f146100fc575b600080fd5b34801561005b57600080fd5b5061007660048036038101906100719190610490565b610139565b60405161008391906104d6565b60405180910390f35b34801561009857600080fd5b506100b360048036038101906100ae9190610490565b610151565b6040516100c091906104d6565b60405180910390f35b3480156100d557600080fd5b506100f060048036038101906100eb919061051d565b6101ae565b005b6100fa61034b565b005b34801561010857600080fd5b50610123600480360381019061011e9190610490565b6103e5565b60405161013091906104d6565b60405180910390f35b60006020528060005260406000206000915090505481565b6000808273ffffffffffffffffffffffffffffffffffffffff163190507f7c4b3ebe24b67f845d481885128ad41f55e5d927e00e2573453e1a8cf437b75c8160405161019d91906104d6565b60405180910390a180915050919050565b806000803373ffffffffffffffffffffffffffffffffffffffff1673ffffffffffffffffffffffffffffffffffffffff16815260200190815260200160002054101561022f576040517f08c379a0000000000000000000000000000000000000000000000000000000008152600401610226906105ba565b60405180910390fd5b8173ffffffffffffffffffffffffffffffffffffffff163373ffffffffffffffffffffffffffffffffffffffff160361029d576040517f08c379a00000000000000000000000000000000000000000000000000000000081526004016102949061064c565b60405180910390fd5b806000803373ffffffffffffffffffffffffffffffffffffffff1673ffffffffffffffffffffffffffffffffffffffff16815260200190815260200160002060008282546102eb919061069b565b92505081905550806000808473ffffffffffffffffffffffffffffffffffffffff1673ffffffffffffffffffffffffffffffffffffffff168152602001908152602001600020600082825461034091906106cf565b925050819055505050565b6000341161038e576040517f08c379a000000000000000000000000000000000000000000000000000000000815260040161038590610775565b60405180910390fd5b346000803373ffffffffffffffffffffffffffffffffffffffff1673ffffffffffffffffffffffffffffffffffffffff16815260200190815260200160002060008282546103dc91906106cf565b92505081905550565b60008060008373ffffffffffffffffffffffffffffffffffffffff1673ffffffffffffffffffffffffffffffffffffffff168152602001908152602001600020549050919050565b600080fd5b600073ffffffffffffffffffffffffffffffffffffffff82169050919050565b600061045d82610432565b9050919050565b61046d81610452565b811461047857600080fd5b50565b60008135905061048a81610464565b92915050565b6000602082840312156104a6576104a561042d565b5b60006104b48482850161047b565b91505092915050565b6000819050919050565b6104d0816104bd565b82525050565b60006020820190506104eb60008301846104c7565b92915050565b6104fa816104bd565b811461050557600080fd5b50565b600081359050610517816104f1565b92915050565b600080604083850312156105345761053361042d565b5b60006105428582860161047b565b925050602061055385828601610508565b9150509250929050565b600082825260208201905092915050565b7f496e73756666696369656e742062616c616e63652e0000000000000000000000600082015250565b60006105a460158361055d565b91506105af8261056e565b602082019050919050565b600060208201905081810360008301526105d381610597565b9050919050565b7f596f752063616e6e6f74207472616e736665722066756e647320746f20796f7560008201527f7273656c662e0000000000000000000000000000000000000000000000000000602082015250565b600061063660268361055d565b9150610641826105da565b604082019050919050565b6000602082019050818103600083015261066581610629565b9050919050565b7f4e487b7100000000000000000000000000000000000000000000000000000000600052601160045260246000fd5b60006106a6826104bd565b91506106b1836104bd565b92508282039050818111156106c9576106c861066c565b5b92915050565b60006106da826104bd565b91506106e5836104bd565b92508282019050808211156106fd576106fc61066c565b5b92915050565b7f596f75206d757374206465706f73697420736f6d652063727970746f6375727260008201527f656e63792e000000000000000000000000000000000000000000000000000000602082015250565b600061075f60258361055d565b915061076a82610703565b604082019050919050565b6000602082019050818103600083015261078e81610752565b905091905056fea264697066735822122091f55a0fc36dce65333079995279fd43ae0faf133ee7e6e58790dc0f688b4f6f64736f6c63430008130033",
  "linkReferences": {},
  "deployedLinkReferences": {}
}